:100000009FC70000D6C70000D4C70000D2C70000B9
:10001000D0C70000CEC70000CCC70000CAC7000090
:10002000C8C70000C6C700000C9431300C941931C9
:100030000C94341CBEC70000BCC70000BAC7000047
:10004000B8C70000B6C70000B4C70000B2C70000C0
:10005000B0C700000C940D30ACC70000AAC7000068
:10006000A8C70000A6C70000A4C70000A2C70000E0
:10007000A0C700009EC700009CC700009AC70000F0
:1000800098C7000096C7000094C7000092C7000000
:1000900090C700008EC700008CC700008AC7000010
:1000A00088C7000086C7000084C700000501090258
:1000B000A10185020901A1000509190129081500FE
:1000C0002501950875018102050109300931158165
:1000D000257F95027508810609381581257F9501D0
:1000E00075088106050C0A38021581257F95017572
:1000F000088106C0C005010980A10185031A01001D
:100100002A8F00160100268F00950175108100C00E
:10011000050C0901A101850419012AA00215012677
:10012000A002950175108100C005010906A1018595
:1001300006050719E029E7150025019508750181D5
:10014000020507190029EF1500250195F0750181B9
:10015000020508190129059505750191029501759A
:10016000039101C00660FF0961A101096215002623
:10017000FF009520750881020963150026FF009590
:100180002075089102C005010906A101050719E0C3
:1001900029E715002501950875018102950175086B
:1001A00081010507190029FF150026FF0095067536
:1001B0000881000508190129051500250195057517
:1001C000019102950175039101C009025B000301D1
:1001D00000A0FA0904000001030101000921110136
:1001E0000001224400070581030800010904010001
:1001F000020300000009211101000122220007056D
:100200008203200001070503032000010904020006
:10021000010300000009211101000122B8000705B7
:100220008403200001120100020000000810D00128
:100230001601000102000110034B0042003100369C
:10024000002D003000310000000A0344004F004937
:10025000004F000000040309041E001F00200021BD
:1002600000AE0022002300240025000152260027B2
:100270000052002800A8002352500051004F0000F7
:100280000001000100010001000100010001000166
:100290000001000252010001000100010001000103
:1002A0000001000100010000000100010001000147
:1002B00000010001000100010001000352010001E2
:1002C0000001000100010001000100010001000027
:1002D000004B784C780100007C0100477848780199
:1002E0000001000052427843784578010001000186
:1002F00000497846784A780000AB00AC004B004ECD
:1003000000A900AA00010001000100010001000194
:1003100000010001000100010001000100010001D5
:10032000000100010001000100000000000080C089
:10033000E0F0F0F0F0F0F0F0F0F0F0F0F0F0F0F0CD
:10034000F0E0C0800000000000000000000000009D
:10035000000000000000000000000000000000009D
:10036000000000000000000000000000000000008D
:10037000000000000000000000000000000000007D
:10038000000000000000000000000000000000006D
:10039000000000000000000000000000000000005D
:1003A00000000000000000000000000000FFFFFF50
:1003B000FFFFFFFFF7F1010100000000FCFFFFFF5E
:1003C000FFFFFFFFFF000000000000000000000032
:1003D00000809E9E9E9E8686868686C6FEFEFE7E49
:1003E000000000000000000000000000000000000D
:1003F000000000868686868686868686F6FEFEFE57
:100400000E000000000000000000000000000000DE
:100410000000C0FCFEFE3E02000080FEFEFE7E00EC
:1004200000000000000000000000000000FFFFFFCF
:10043000FFFFFFFFFF030000000000FEFFFFFFFFC4
:10044000FFFFFFFFFF0000000000000000000000B1
:10045000007F7F7F6F616161616161616161210026
:10046000000000000000000000000000000000008C
:100470000060606161616161616161797F7F7F07B7
:10048000000000000000000000000000000000006C
:10049000000E0F0F0F0D0C0C0C4C7F7F7F7F0C0C90
:1004A0000000000000000000000000000000010348
:1004B000070F0F0F0F0F0F0F0F0F0F0F0F0F0F0F54
:1004C0000F07030100000000000000000000000012
:1004D000000000000000000000000000000000001C
:1004E000000000000000000000000000000000000C
:1004F00000000000000000000000000000000000FC
:1005000000000000000000000000000000000000EB
:1005100000000000000000000000000000000000DB
:1005200000000000000000000000000000000000CB
:1005300000000000000000000000000000000000BB
:1005400000000000000000000000000000000000AB
:10055000000000000000000000000080C0E0F0F09B
:10056000F0F0F0F0F0F0F0F0F0F0F0F0F0F0E0C0CB
:1005700080000000000000000000000000000000FB
:10058000000000000000000000000000000000006B
:10059000000000000000000000000000000000005B
:1005A000000000000000000000000000000000004B
:1005B000000000000000000000000000000000003B
:1005C00000080EFEFEFFFFFFFF030000000000001A
:1005D00000000000000000000000FFFFFFFF7F613F
:1005E00061616179797979793901010181FFFFFFD1
:1005F000FFFF0000000000000000000000000000FD
:10060000868686868686868686F6FEFEFE0E000036
:10061000000000000000000000000000000000C01A
:10062000FCFEFE3E02000080FEFEFE7E000000009A
:1006300000000000000000000000000000000000BA
:100640000000FCFFFFFFFFFF0100000000000000B2
:1006500000000000000000000000FFFFFFFF80809E
:1006600080909E9E9E9E9E9E9E9E9EDEFFFFFFFF12
:10067000FFFF0000000000000000000000006060BC
:100680006161616161616161797F7F7F0700000065
:1006900000000000000000000000000000000E0F3D
:1006A0000F0F0D0C0C0C4C7F7F7F7F0C0C0000009B
:1006B000000000000000000000000000000000003A
:1006C000000000000000000000000000000000002A
:1006D00000000000000000000000000103070F0FF1
:1006E0000F0F0F0F0F0F0F0F0F0F0F0F0F0F07032E
:1006F00001000000000000000000000000000000F9
:1007000000000000000000000000000000000000E9
:1007100000000000000000000000000000000000D9
:1007200000000000000000000000000000000000C9
:1007300000000000000000000000000000000000B9
:1007400000000000000000000000000000000000A9
:100750000000000000000000000000000000000099
:100760000000000000000000000000000000000089
:100770000000000000000000000000000000000079
:10078000000000000000000080C0E0F0F0F0F0F099
:10079000F0F0F0F0F0F0F0F0F0F0F0E0C0800000E9
:1007A0000000000000000000000000000000000049
:1007B0000000000000000000000000000000000039
:1007C0000000000000000000000000000000080E13
:1007D000FEFEFFFFFFFF030000000000000000001E
:1007E0000000000000000000000000809E9E9E9E11
:1007F0008686868686C6FEFEFE7E0000000000001D
:1008000000000000000000FFFFFFFFFFFF79797983
:1008100079797979797909010101F1FFFFFFFF0009
:10082000000000000000000000000000C0FCFEFE10
:100830003E02000080FEFEFE7E0000000000000080
:10084000000000000000000000000000000000FCAC
:10085000FFFFFFFFFF01000000000000000000009C
:1008600000000000000000000000007F7F7F6F613B
:10087000616161616161616121000000000000004F
:1008800000000000000000FFFFFFFF9F9F9E9E9E54
:100890009E9E9E9E9E86808080F8FFFFFFFFFF0049
:1008A00000000000000000000000000E0F0F0F0D00
:1008B0000C0C0C4C7F7F7F7F0C0C000000000000B4
:1008C0000000000000000000000000000000000028
:1008D0000000000000000000000000000000000018
:1008E0000000000000000000000000000000000008
:1008F00000000000000000000000000000000000F8
:1009000000000000000000000103070F0F0F0F0F91
:100910000F0F0F0F0F0F0F0F0F0F0F070301000027
:1009200000000000000000000000000000000000C7
:1009300000000000000000000000000000000000B7
:1009400000000000000000000000000000000000A7
:100950000000000000000000000000000000000097
:100960000000000000000000000000000000000087
:100970000000000000000000000000000000000077
:100980000000000000000000000000000000000067
:100990000000000000000000000000000000000057
:1009A0000000000000000000000000000000000047
:1009B000000000000080C0E0F0F0F0F0F0F0F0F097
:1009C000F0F0F0F0F0F0F0F0E0C080000000000087
:1009D0000000000000000000000000080EFEFEFF06
:1009E000FFFFFF0300000000000000000000000007
:1009F0000000000000000000809E9E9E9E8686866D
:100A00008686C6FEFEFE7E0000000000000000009C
:100A100000000000000000000000868686868686B2
:100A2000868686F6FEFEFE0E000000000000000036
:100A300000000000FFFFFFFFFF3F030101C1FDFFBA
:100A4000FF7F01010181FFFFFFFFFFFF00000000AA
:100A5000000000000000000000000000FCFFFFFF9D
:100A6000FFFF010000000000000000000000000087
:100A700000000000000000007F7F7F6F6161616106
:100A80006161616161210000000000000000000060
:100A90000000000000000000606061616161616150
:100AA0006161797F7F7F0700000000000000000087
:100AB00000000000FFFFFFFFF1F0F0F0F2F3F3F3AE
:100AC000B380808080F3F3FFFFFFFFFF0000000092
:100AD0000000000000000000000000000000000016
:100AE0000000000000000000000000000000000006
:100AF00000000000000000000000000000000000F6
:100B000000000000000000000000000000000000E5
:100B100000000000000000000000000000000000D5
:100B200000000000000000000000000000000000C5
:100B300000000000000103070F0F0F0F0F0F0F0F32
:100B40000F0F0F0F0F0F0F0F070301000000000022
:100B50000000000000000000000000000000000095
:100B60000000000080C06020301018080804040451
:100B70000202020202020201010101020202020259
:100B8000020204040408081810302060C08000002D
:100B90000000000000000000000000000000000055
:100BA0000000000000000000000000000000000045
:100BB0000000000000000000000000000000000035
:100BC0000000000000000000000000000000000025
:100BD0000000000000000000000000000000008095
:100BE000F0FC0E030100F8F8F8383838F0F0E000B7
:100BF000C0E0F07038383870F0E0C00018F8F8F84D
:100C00001800C0E0F07038383870F0E0C001030E12
:100C1000FCF88000000000FF00000000F8F8F880F9
:100C2000C0E0F078381800F8F8F8B8B8B8F8F870FC
:100C30000060607078F8F8F800E0F0F0B8B8B8B884
:100C4000B8300080808080808000E0F0F83838384C
:100C5000F8F0E00060607078F8F8F800000000013B
:100C60000F3F70C080001F1F1F1C1C1C0F0F0700B0
:100C700003070F0E1C1C1C0E0F070300181F1F1F5D
:100C8000180003070F0E1C1C1C0E0F070380C070FA
:100C90003F0F0100000000FF000000001F1F1F01A8
:100CA00003070F1E1C18001F1F1F1D1D1D1F1F0ED9
:100CB00000000000001F1F1F00070F0F1D1D1D1F3C
:100CC0001F0F0001010101010100070F1F1C1C1C67
:100CD0001F0F0700000000001F1F1F000000000082
:100CE00000000000010306040C081810102020204A
:100CF00040404040404040808080804040404040F4
:100D00004040202020101018080C040603010000A9
:100D100000000000000000000000000000000000D3
:100D200000000000000000000000000000000000C3
:100D300000000000000000000000000000000000B3
:100D400000000000000000000000000000000000A3
:100D50000000000000000000000000000000000093
:100D60000000000000000000000000AE00AF000125
:100D7000010101010101010102020202020202025B
:100D8000020303030303030303040404040404042D
:100D900005050505050606060606070707070708F1
:100DA000080808090909090A0A0A0B0B0B0C0C0CA4
:100DB0000D0D0D0E0E0E0F0F0F101011111112123E
:100DC00013131414151516161717181819191A1ABB
:100DD0001B1B1C1D1D1E1E1F20202122222324241C
:100DE000252626272829292A2B2C2D2D2E2F303158
:100DF0003232333435363738393A3B3C3D3E3F406A
:100E00004142434445464748494A4C4D4E4F505154
:100E10005354555658595A5B5D5E5F61626465660E
:100E200068696B6C6D6F7072737577787A7B7D7E95
:100E30008082838587888A8C8E8F91939596989AE5
:100E40009C9EA0A2A3A5A7A9ABADAFB1B3B5B7BAFD
:100E5000BCBEC0C2C4C6C9CBCDCFD1D4D6D8DBDDD1
:100E6000DFE2E4E7E9EBEEF0F3F5F8FAFDFF00DA94
:100E70000281FFD9F1DB20A4A62EAF00A0C0D300D1
:100E800000A1C8D30000AED580A81F408D1420005B
:100E90000000000000000000000000000000000052
:100EA0000000000000000000000000000000000042
:100EB000000000007E0F00D4FFFFFFC70000007895
:100EC00000000000000000002A2B280000000000A5
:100ED00000000000000000000000002900000000E9
:100EE0002C1E3420212224342627252E362D373857
:100EF000271E1F202122232425263333362E373860
:100F00001F0405060708090A0B0C0D0E0F1011121D
:100F1000131415161718191A1B1C1D2F3130232DE9
:100F2000350405060708090A0B0C0D0E0F101112E7
:100F3000131415161718191A1B1C1D2F3130354C98
:100F400011241FBECFEFDAE0DEBFCDBF04B603FE33
:100F500019C080911E0690911F06A0912006B091A5
:100F600021068730904BA740B04B61F410921E06CB
:100F700010921F061092200610922106E0E0F8E37E
:100F8000099500C012E0A0E0B1E0ECEAF8E602C08A
:100F900005900D92A631B107D9F726E0A6E1B2E09F
:100FA00001C01D92AE31B207E1F70E944C290C94AA
:100FB000DF3326C8982F92959F7061F420E0982F18
:100FC000892F8695869511F02E5F982F892F86950B
:100FD000820F089524E0F4CF8093D705089580937D
:100FE000D805089521E001C0220F8A95EAF7809183
:100FF000D805822BF4CF21E001C0220F8A95EAF7B1
:10100000822F80959091D8058923E9CFCF93C1E0B5
:1010100061FDC4E060FDCC0F62FDC29593E0769562
:1010200067959A95E1F79B01220F331F260F371F13
:10103000420F531FFA0140E050E090E06191DF0160
:101040009C01042E02C0369527950A94E2F7269556
:10105000220B26272C2326272E934F5F5F4F4330EA
:10106000510561F7CF910895A82FA77023E09695B9
:1010700087952A95E1F79C01220F331F820F931F5A
:10108000680F791FFB0140E050E080E0219130E0E3
:101090000A2E02C0369527950A94E2F72170042E95
:1010A00001C0220F0A94EAF7822B4F5F5F4F433053
:1010B000510561F70895282F862F943068F4253064
:1010C00050F4622F70E025E0929F600D711D112495
:1010D0004FEB55E09BCF08959C5F9230E0F7622F75
:1010E00070E04CEB55E0F6CF292F943058F4853062
:1010F00080F490E06FEB75E035E0239F800D911D4B
:101100001124B2CF2C5F223020F46CEB75E090E01C
:10111000F8CF80E008959091D80521E030E0F90102
:1011200001C0EE0F8A95EAF7D90101C0AA0F6A95AE
:10113000EAF7EA2B01C0220F4A95EAF7892F8E239E
:10114000E81303C0892F822B4ACF2095822F892351
:10115000FBCFE091DE059091DD05E91302C080E050
:1011600008959F0157E0E59FF0011124E152FA4FE5
:101170005181561306C05081581303C05581541332
:1011800005C02F5F3F4FF901E770E7CF81E0089579
:101190008091DE052091DD05281301C00895019698
:1011A0008770FACF9091D905809589238093D905CE
:1011B000282F277061F4891751F09091DB0592FF79
:1011C00006C086958695869516DF1092D9050895F6
:1011D0008091D4059091DC05892B9091D5059115CE
:1011E000C9F0892B90912101913021F49091DA0579
:1011F00097FD11C096E02AE132E040E09150F901FC
:1012000050812F5F3F4F51114F5F9111F7CF411127
:101210001092D50508959EE122E232E0EECF80954E
:10122000982F8091D40589238093D4050895FC01DB
:10123000F235B8F5F03508F0BBC0E03EF105F0F44A
:10124000ED3CF10508F092C0E83AF10570F4E53A9A
:10125000F10508F07BC0E130F10529F0CF010497DA
:10126000813A910540F4CF010895CF01885A910940
:101270004B9708F46FC0E0E0F0E0F5CFF03460F495
:10128000F03208F0AAC0E83EF10568F3CF019150B2
:101290009C0121153F41E6CFCF019F70906AFC0170
:1012A000E2CFE03882E5F807C8F5E03682E5F807D6
:1012B00008F064C0E03482E5F807D0F4E03282E55B
:1012C000F80708F055C02E2F2695269590E2299F05
:1012D000900111248E2F837041E050E002C0440F32
:1012E000551F8A95E2F7CA01822B932B9D68D7CFB1
:1012F0002E2F26952695277090E2299F9001112484
:101300008E2F837041E050E002C0440F551F8A9534
:10131000E2F7CA01822B932B9C68C1CFE03C82E5A7
:10132000F80748F42E2F2F71E03AF245E8F5922F96
:1013300084EF906AB4CFCF01805C9245809708F02B
:101340009ACF9E2F9F7180EF906AA9CFCF0184978B
:101350009064A5CF8E2F885AE82FF0E0EE0FFF1F84
:10136000E655FE4F80819181946499CFF0657BCFE3
:101370008E2F8F71982F81EF906A91CF2E2F269507
:101380002695277090E2299F900111248E2F83705B
:1013900041E050E002C0440F551F8A95E2F7CA01B0
:1013A000822B932B9A687BCF80E0922F906277CF2D
:1013B000CF0123E0880F991F2A95E1F7392F3F705D
:1013C0006E2F6F71462FE4FF04C080E1689FA0017B
:1013D0001124242FC901906962CFCF019F71E6CFFC
:1013E00080E00895F894E82FE295EF70F0E041A1D5
:1013F0008F7021E001C0220F8A95EAF7922F909515
:10140000942391A392A1822F892B82A3789408958B
:10141000CF92DF92EF92FF921F93CF93DF93462FED
:10142000172FE82FF0E0E259F24F71110CC0E49150
:101430008E2F7E2F6E2FDF91CF911F91FF90EF9017
:10144000DF90CF900895F491EF2F86E0689FE00140
:1014500011242FEF30E0CE01B9010E94BE32DB0132
:10146000CA01880F991F65E56A9FA0016B9F500D07
:101470001124841B482F440F480FC901811B910977
:10148000F89F7001F99FF00C11248F2D149FB0016B
:101490001124672F70E06901C61AD70AB601F69FBA
:1014A0006001F79FD00C1124A330B10549F1B901B7
:1014B000641B7109AB01149FB001159F700D1124BD
:1014C000672F70E0261B370BF29FA001F39F500D92
:1014D0001124752FCC3FD34050F4A130B105A1F0B9
:1014E000129709F0A7CFEF2D852F7F2FA3CFA43020
:1014F000B10569F0169709F49DCF7F2D8D2D9ACFF8
:101500007D2DEF2D8F2F96CF7F2FED2D93CFE52FB4
:101510007F2DF8CF282F269F020E20E0211D1124B9
:10152000822F08959C0180E090E0269F020E811D8D
:10153000369F800D911D1124830F911D0895AC01DC
:101540008230910508F408959FEF413E8EE15807DF
:1015500040F49A0195E0369527959A95E1F7922FF8
:10156000985F61E0262F290F3327331F3595279584
:10157000822F229FF001239FF00DF00D11244E17B2
:101580005F0738F4922F9150961760F7862F81509D
:1015900008952F3FE9F3622F6F5FF6CF409111015D
:1015A0005091120125E038E0429FC001439F900D09
:1015B000529F900D1124875E994C80931101909356
:1015C0001201890F0895CF93C82FE8DF8C9FC001C7
:1015D0001124892FCF910895982FE82F96FDE0953B
:1015E0008E2F8F7096FD8F5FE695E695E695E670F7
:1015F000F0E0EB5BFE4F2181289F202D812D1124EF
:1016000022952F708295807F282B8081820F97FDF5
:10161000819580580895FC019B01009719F4832F50
:1016200080780895AC0197FF04C044275527481BD4
:10163000590BB901640F751F37FD10C0241B350B02
:10164000A0E23A9F902D2A9F802D912911240E947B
:10165000093380E2861BF7FD81950895CB0160E296
:10166000969F902D869F802D91291124421B530B0C
:10167000BA010E94093380E6EDCF1F93CF93DF9329
:10168000EB01182F822F8695A7DF805887FD819563
:10169000612F880F3FDFBE01DF91CF911F91089529
:1016A0000F931F93CF93DF93162FD72F082FC22F9F
:1016B000E42FF0E0EE0FFF1FEF59FE4F64EE808144
:1016C00029DF4D2F50E0282F30E0245E3F4F6C2F54
:1016D00070E0C9018C1B91091AF4CB01821B930B9A
:1016E00023E0880F991F2A95E1F7481B590BCA017F
:1016F00057FD80E06D2F0EDF612F782F802FDF9157
:10170000CF911F910F9108950F931F93CF93DF9364
:10171000162F072FD82FC22FE42FF0E0EE0FFF1F58
:10172000EF59FE4F64EE8081F5DE4D2F50E0282FFB
:1017300030E0245E3F4F6C2F70E0C9018C1B910993
:101740001AF4CB01821B930B23E0880F991F2A9573
:10175000E1F7481B590BCA0157FD80E06D2FDADE17
:10176000612F702FDF91CF911F910F9108950F93EB
:101770001F93CF93DF93D62FC72F182FC901272F81
:10178000201B022FBA0147DF982F990F990F891B51
:101790006C2F800FBFDE6D2F782F812FDF91CF91BF
:1017A0001F910F9108950F931F93CF93DF93D62F1F
:1017B000172FC82FC9012C2F201B022FBA012BDF96
:1017C000982F990F990F891B6C2F800FA3DE6D2F17
:1017D000712FDF91CF911F910F910895622F08957E
:1017E000E42FF0E0EE0FFF1FE35BFE4F6589621B05
:1017F00008950F93CF93DF93C72FD82FC901BA0154
:101800000ADF800F682F7C2F8D2FDF91CF910F91F2
:1018100008950F931F93A02FB0E0FD01EE0FFF1F5F
:10182000E35BFE4F05890052110B2003F001219F5D
:10183000F00D1124AA0FBB1FAF59BE4F2C9120579A
:10184000330B4203D001439FB00D11249F012A0F97
:101850003B1F12F421583F4F220F232F221F330B1F
:10186000620F1F910F9108950F931F93E02FF0E0E7
:10187000DF01AA0FBB1FAF59BE4F9C91905797FD38
:101880009195EE0FFF1FE35BFE4FA589A052BB0BA6
:101890008D012003F001219FF00D112428E330E099
:1018A000291B310997FD33954203D001439FB00DA9
:1018B0001124EA0FFB1F9F01220F331F2E0F3F1F22
:1018C00012F421583F4F220F232F221F330B620F98
:1018D0001F910F9108951F93CF93DF93EB01182F62
:1018E000822F869579DE805887FD81956CE0880F80
:1018F00011DE6C2F680F7D2F812FDF91CF911F910B
:1019000008950F931F93CF93DF93D62F172F082F90
:10191000C42F822F61DEEC2FF0E0EE0FFF1FEF5996
:10192000FE4F90819058890F87FD81956CE0880F5C
:10193000F1DD6D2F680F712F802FDF91CF911F91F7
:101940000F9108951F93CF93DF93EB01182FE42F8E
:10195000F0E0EE0FFF1FEF59FE4F8081821B87FDE5
:10196000819568E1D7DD6C2F680F7D2F812FDF9186
:10197000CF911F910895CF93DF93EB0151114FEF5A
:10198000682F842F8095C6DDBE01DF91CF91089529
:101990001F93CF93DF93EB01182F51114FEF60E4AA
:1019A000842F8095B7DD6C2F680F7D2F812FDF91FD
:1019B000CF911F910895EF92FF920F93970195E0B9
:1019C000099F200D311D112431112FEF2095382F43
:1019D000320F08F43FEF832F0F91FF90EF9008959F
:1019E000EF92FF920F93E00EF11CF90137FF03C055
:1019F000F195E195F109E295F295F07FFE27E07F00
:101A0000FE27F13014F0EFEFF0E09A0157FF03C02A
:101A100031952195310922953295307F3227207FEB
:101A200032272E173F070CF4F901EE0DFF1DF111BF
:101A3000EFEF2E2F2095382F320F08F43FEF832F32
:101A40000F91FF90EF900895EF92FF920F93972FD1
:101A5000093420F4B701601B710971116FEF485F01
:101A60005F4F4131510538F0A901485F5F4F413167
:101A7000510508F06FEF6095482F460F08F44FEFBF
:101A8000842F37FF02C02D5F3F4F35952795359541
:101A9000279560917D05620F792F0F91FF90EF9050
:101AA0000895EF92FF920F939701201B3109A9012E
:101AB00051114FEF342F3095282F230F08F42FEFBB
:101AC000822F640F0F91FF90EF900895EF92FF9295
:101AD0000F939701201B310931112FEF2095382FDB
:101AE000320F08F43FEF832F0F91FF90EF9008958E
:101AF0009091FA02982B9093FA02089573C3089577
:101B0000FF920F931F93CF93DF93C82FD0E0FE0176
:101B1000E35BFE4F84A990910F018923A1F000910E
:101B20007E05F0907F0510917D0583E04CDD612FEF
:101B300090EE899F600D1124702F8F2D69DC472F47
:101B4000282FCE01DBDFCDB7DEB7E5E00C94FB320A
:101B50001F93CF93DF93C82FD0E0FE01E35BFE4FCE
:101B600084A990910F01892371F018DD182F80E866
:101B70002ADD8158782F612F80917F0549DC472F1E
:101B8000282FCE01BBDFDF91CF911F91089535C380
:101B90000895880F880F982F9C5F913108F090E18D
:101BA0000895A0E0B0E0E7EDFDE00C94DC326C01BC
:101BB00080910E01EEDFC82F192F60918005669588
:101BC0008091F6029091F702ADDC082FD0E0CE01B3
:101BD000880F991F835B9E4F7C011C1709F048F406
:101BE00081E0103108F080E0CDB7DEB7E8E00C947A
:101BF000F832FE01E35BFE4F84A990910F01892327
:101C0000A1F0F70125892052330B44894057550B29
:101C100060917D0570917E0580917F05F6010995A3
:101C2000F7DB472F282FCE0169DF82E0E80EF11C99
:101C30002196D3CFEF92FF920F931F93CF93DF9311
:101C40007C0180910E01A5DFC82F192F60918005BE
:101C50006695669521E0620F08F46FEF8091F602B9
:101C60009091F7025FDC082FD0E0C11748F081E0C7
:101C7000103108F080E0CDB7DEB7E6E00C94FA3220
:101C8000FE01E35BFE4F84A990910F01892379F057
:101C900060917D0570917E0580917F05202F4C2FEE
:101CA000F7010995B5DB472F282FCE0127DF2196B5
:101CB000DCCFAF92BF92DF92EF92FF920F931F9310
:101CC000CF93DF935C0180910E0163DFC82F192F42
:101CD00060918005669566958091F6029091F70275
:101CE00021DCE82E805C78DC8058F82E8E2D74DCA8
:101CF0008058D82ED0E0C11770F081E0103108F084
:101D000080E0DF91CF911F910F91FF90EF90DF90D6
:101D1000BF90AF900895FE01E35BFE4F84A99091C0
:101D20000F01892381F060917D0570917E0580917E
:101D30007F050C2F2D2D4F2DF501099569DB472FC0
:101D4000282FCE01DBDE2196D6CFAF92BF92DF9255
:101D5000EF92FF920F931F93CF93DF935C018091DB
:101D60000E0117DFC82FD92E2091800531E0230FF7
:101D700008F42FEF30E040E050E0CA016FEF7FEF52
:101D80000E941C338901D0E0F22EE12E2C2FCD15BC
:101D900078F081E09D2D903108F080E0DF91CF91C7
:101DA0001F910F91FF90EF90DF90BF90AF9008953B
:101DB000FE01E35BFE4F84A990910F018923F9F0A6
:101DC0004091FB024150542F550F550B47FF19C04E
:101DD0008F2D9E2D6091800521E0620F08F46FEF3A
:101DE000A1DBAC0160917D0570917E0580917F053E
:101DF000F50109950DDB472F282FCE017FDE2196B7
:101E0000C5CFFA01E550FD4F818982130AC0FA015E
:101E1000EE0FFF1FE550FD4F818D928D80179107CA
:101E2000C8F241505109D2CFA8E0B0E0EAE1FFE0AA
:101E30000C94D2328B839C8380910E01AADE192FE1
:101E40005090FB0290E08D831E82880F991F835B68
:101E50009E4F6C018D81811740F081E0103108F0B8
:101E600080E02896E2E10C94EE32ED81FE81E35BA6
:101E7000FE4F84A990910F018923F9F030907D05E0
:101E800020907E0584E193E089839A838BEFA82ECE
:101E900082E0B82E412C2BEF32E08A2D821B851573
:101EA000A8F060917F05842D35DB632D722DB0DAAB
:101EB000472F282F8D819E8121DE8D819E81019665
:101EC0008D839E8382E0C80ED11CC4CFF601848826
:101ED000F5018181881A9908F6016588F5018185E7
:101EE000681A7708889C9001899C300D300D112468
:101EF000669CC001679C900D900D1124820F931F6A
:101F00001EDB082F6091800521E0620F08F46FEF5F
:101F1000E981FA8181919191E983FA8303DB7C0164
:101F20009301A401632D722D842DEB81FC81099511
:101F3000362E272E482E8FEFA81AB80AACCF9091D4
:101F40007C0521E0922790937C0510920D01D0CD65
:101F500080917C05837011F410920D0180917C05B5
:101F60008C7F816080937C05089580917C058370CF
:101F700011F010920D0180917C058C7F80937C057F
:101F8000089590917C05937091F0811589F08E31C0
:101F900088F48F73880F880F982F20917C05237009
:101FA000922B90937C0510920D01862FA1CD089560
:101FB00081E0F0CF8DE1EECF80917C05869586950E
:101FC0008F5F8E3108F081E061E0DBCF80917C058E
:101FD00086958695815009F48DE161E0D2CF90918C
:101FE0007C05937059F080937D0560937E05493C94
:101FF00008F048EC40937F05822F7ACD0895ECE7F6
:10200000F5E0818190E021E0438162810896E7CF8D
:10201000ECE7F5E0818121E0438162818850990BF2
:10202000DECFECE7F5E0628120E1620F08F46FEFAC
:10203000818121E0438190E0D2CFECE7F5E062813D
:1020400020E1621B08F460E0818121E0438190E09F
:10205000C6CFECE7F5E0438120E1420F08F44FEFF3
:10206000818121E0628190E0BACFECE7F5E0438125
:1020700020E1421B08F440E0818121E0628190E090
:10208000AECF2091800530E1230F08F42FEF20938D
:10209000800581E02DCD2091800530E1231B08F4DF
:1020A00020E02093800581E023CD81E090E0209125
:1020B00081052F3F09F080E08D5B9E4FFC01808100
:1020C0008093810581E014CD81E090E0209181052D
:1020D0002F3F09F080E08D5B9E4FFC018081809353
:1020E000810581E005CD0F931F93CF93DF93A091DE
:1020F0002803B09129039D012A523340BD016D513F
:102100007140613042E0740710F060E072E040918D
:10211000260350912703FC0101E010E02617370742
:1021200048F04093260350932703DF91CF911F91EE
:102130000F91089584919D91891789F0ED018A93FB
:10214000C901C5E096958795CA95E1F7E80102C0F7
:10215000CC0FDD1F8A95E2F7CE014C2B592B2F5F58
:102160003F4F3196DBCF90E06115D1F0885C9E4FF8
:10217000FC0180818F3F99F0E82FE295EF70F0E04D
:1021800041A18F7021E001C0220F8A95EAF7922FBA
:102190009095942391A392A1822F892B82A30895D5
:1021A0008B5C9E4FE5CF90E06115A9F0885C9E4F57
:1021B000FC0120812F3F91F0E22FE295EF70E05E6D
:1021C000F0E0808190E02F7002C0959587952A9568
:1021D000E2F7817008958B5C9E4FEACF80E008950E
:1021E000869A0895FC01EE0FFF1FE80FF91FE55ACC
:1021F000FD4F6183408322830895FF920F931F93C5
:10220000CF93DF93182F062FF42EC0E0D0E02F2DB0
:10221000402F612FCE01E6DF2196C031D105B9F7FD
:10222000CDB7DEB7E5E00C94FB32382F25EB320357
:10223000C001112497FF04C080589109892F089587
:1022400080589F4FFBCF8091CA0580FD14C081FD4F
:1022500014C082FD16C08091C905811581F08E31B0
:1022600080F420E5829FC00111246EE170E00E949D
:102270000933862F089584E1089588E2089588E05F
:10228000089580E508958091CA0580FD17C081FDFD
:1022900017C082FD19C08091C805811599F0883258
:1022A00098F428E0829FC001112468E270E00E9447
:1022B00009336115710551F0862F089562E0FCCF56
:1022C00064E0FACF61E0F8CF68E0F6CF81E00895EE
:1022D000E091B205F091B305309739F00190F081AB
:1022E000E02D309711F00995089580E00895A3E05E
:1022F000B0E0EDE7F1E10C94E23220915902309127
:102300005A0228173907B1F08093590290935A0264
:10231000E091B205F091B305309761F00084F1854A
:10232000E02D309739F023E029838A839B83CE0107
:10233000019609952396E2E00C94FE32A3E0B0E00A
:10234000E4EAF1E10C94E232209157023091580214
:1023500028173907B1F08093570290935802E09103
:10236000B205F091B305309761F00084F185E02D5E
:10237000309739F024E029838A839B83CE0101962C
:1023800009952396E2E00C94FE3290912101913060
:1023900021F49091DA0597FD0CC0EAE1F2E0919109
:1023A000891302C0DF011E9292E0E032F907B9F70B
:1023B0000895E82FE695E695E695803FC8F7F0E0AA
:1023C000E05EFD4F9DEF81FD97EF80FF959582FDCB
:1023D00092958281892382830895809120010895B6
:1023E0002FB7F89460915302709154028091550276
:1023F000909156022FBF0895FC012091490230911F
:102400004A022617370748F06115710529F49091A3
:10241000E8009E779093E8009B0190E0211531053C
:1024200041F4911106C08091E80082FF32C080E043
:102430000895809184058115C1F18530C1F18091A5
:10244000E80083FD30C08091E80082FDECCF8091F0
:10245000E80080FFE3CF8091F3004091F200582F15
:102460002115310519F04830510558F091E04830F8
:10247000510509F090E04091E8004E774093E80064
:10248000CDCF81918093F100215031094F5F5F4F93
:10249000E7CF80918405811541F0853041F080912E
:1024A000E80083FFC0CF81E0089582E0089583E0D3
:1024B0000895982F9093E900891771F07091EC00BE
:1024C0002091ED005091F00021FD09C09F5F9730F1
:1024D00089F78093E9000895762F242F50E03091FA
:1024E000EB003E7F3093EB003091ED003D7F309369
:1024F000ED003091EB0031603093EB007093EC0015
:102500002093ED005093F0002091EE0027FDDECFE8
:1025100008958091430287FF13C08091E80082FFF5
:1025200006C08091E8008B778093E8000895809141
:1025300084058111F2CF0895809184058115D9F326
:102540008091E80080FFF8CF8091E8008E77ECCF93
:102550002091E4003091E50095E6A9012091EC007E
:10256000822F817020FF06C08091E80080FF06C0A6
:1025700080E008952091E80022FD1AC08091840532
:10258000811589F0853089F08091EB0085FD0FC0C1
:102590002091E4003091E50042175307F9F2915081
:1025A000E1F684E0089582E0089583E0089581E0F3
:1025B0000895CF93DF93C8EDD0E088818F7E888324
:1025C000E7EDF0E080818160808384E082BF81E07C
:1025D0008093420288818E7F8883E2EE108210927F
:1025E000DA00A1EEB0E01C9288818F778883888121
:1025F0008068888388818F7D888319BC10928405C8
:10260000109241021092340510924002A0EE8C917B
:102610008B7F8C9388818160888342E060E080E0DA
:1026200048DFA1EEB0E08C918E7F8C93E2EEF0E07B
:10263000808181608083808188608083E0EE8081FA
:102640008E7F8083888180618883DF91CF91089518
:10265000E8EDF0E080818E7F80831092E20010929E
:10266000DA001092E100A0EEB0E08C9181608C93D2
:1026700080818F77808319BCA7ED8C918E7F8C939E
:1026800080818F7E808310924202089531B33F7B18
:1026900021B320644FB7F8948BE592E0FC010196DA
:1026A000508168E021BB000000C057FF31BB550FCF
:1026B000000000C000C000C031BB00C06A9591F7A7
:1026C00052E08B38950751F74FBF8FE594E00197A3
:1026D000F1F700C00000089581E08093E00080E2FF
:1026E0008093D8001092C9008FE19EE40197F1F722
:1026F00000C00000A7E0B0EBCD0180931E069093D0
:102700001F06A0932006B093210688E19CE00FB637
:10271000F894A895809360000FBE90936000FFCF5F
:102720000F931F93CF93DF93EB018A019091840560
:10273000943059F58093E9008FEF9091E80095FD72
:1027400006C095ED9A95F1F700008150B1F78091A0
:10275000E80085FF1AC0FCDE811112C08091E800FC
:1027600085FD06C08091E8008E778093E800F3CF66
:1027700088818093F1000150104011F02196EECF36
:102780008091E8008E778093E800DF91CF911F91D0
:102790000F910895603229F440E250E0BC0182E0DC
:1027A000BFCF0895CF93DF93EC0148E050E0BC0128
:1027B00081E0B6DF88E0FE01ABE4B2E001900D926B
:1027C0008A95E1F7DF91CF91089540E250E0BC0196
:1027D00084E0A6CF46E050E0BC0184E0A1CF43E016
:1027E00050E0BC0184E09CCF9091DB0592FB222756
:1027F00020F9281779F080FB92F99093DB0560911E
:10280000DA057091DB0584E090E00E94DB3382E022
:102810000C94D20808951F93CF93DF93122F282F83
:10282000262B2430D0F44530C0F4C42FD0E0CC0F98
:10283000DD1F2AE0629FC00DD11D112498E2899FFF
:10284000C00DD11D1124632FCE0189960E94C13382
:10285000612FCE018A960E94C133DF91CF911F91E3
:1028600008950F931F93CF93DF93142F022F84307B
:1028700018F5633008F594E0699FE00111249CE0AD
:10288000899FC00DD11D1124C753DF4F81E08427DC
:10289000632F9E01280F311D280F311DC9010E9491
:1028A000C13381E090E0111102C083E090E0602F1D
:1028B0008C0F9D1F0E94C133DF91CF911F910F910B
:1028C00008958F929F92BF92CF92DF92EF92FF92E4
:1028D0000F931F93CF93DF9399EFC92E92E0D92ED8
:1028E000E12CF12CC0E04701D0E013C0F8012591A4
:1028F00035914B2D6D2F8C2F8EDF0E5F1F4FB394B4
:102900008B2D853099F785E0880E911CDF5FD430E0
:1029100039F08401000F111F075A1D4FB12CE6CF6B
:102920008601D0E0F8012591359141E06D2F8C2F83
:1029300098DFF80132962591359140E06D2F8C2F6C
:1029400090DF0C5F1F4FDF5FD33061F78CE0C80E64
:10295000D11CCF5F84E1E80EF11CC43009F0C3CF75
:10296000DF91CF911F910F91FF90EF90DF90CF906B
:10297000BF909F908F90089580912101813069F5DB
:102980008091DA0587FF29C00E94E8088093210220
:1029900040E250E062E975E080E292E00E94673335
:1029A000892BD1F080E2E0E2F2E0A2E9B5E001900B
:1029B0000D928A95E1F7E091B205F091B305309759
:1029C00059F00480F581E02D309731F086E0809356
:1029D000200280E292E0099508950E94E808809321
:1029E000180248E050E064EB75E088E192E00E9454
:1029F0006733892B89F388E0E8E1F2E0A4EBB5E0E6
:102A000001900D928A95E1F7E091B205F091B3053E
:102A1000309711F30280F381E02D3097E9F288E1DD
:102A200092E0D9CF811531F09091D405982B9093F5
:102A3000D405A2CF0895811519F00E940F099CCFEB
:102A400008950F931F93CF93DF93982F962B943075
:102A5000F8F44530E8F4C42FD0E0CC0FDD1F9AE045
:102A6000699FC00DD11D112498E2899FC00DD11D11
:102A70001124CE0189960E94A533082FCE018A9693
:102A80000E94A533902FDF91CF911F910F91089550
:102A900080E090E0F8CFFF920F931F93CF93DF93E6
:102AA000F42E843040F5633030F594E0699FE00106
:102AB00011249CE0899FC00DD11D1124C753DF4F05
:102AC00081E084279E01280F311D280F311DC90187
:102AD0000E94A533082F81E090E0F11002C083E04E
:102AE00090E08C0F9D1F0E94A533902FCDB7DEB7CD
:102AF000E5E00C94FB3280E090E0F8CF743038F4DD
:102B0000653060F4843050F4462F672F9ACF7D3FB4
:102B100041F4633018F441E0843050F080E090E0FC
:102B200008957C3FD9F76330C8F78430B8F740E0A8
:102B3000B2CFCF92DF92FF920F931F93CF93DF9389
:102B40006C010091D8058091D705082BC3E0D0E037
:102B500010E0C8010C2E02C0959587950A94E2F703
:102B600080FD0CC02197A8F7F12C8F2DDF91CF911C
:102B70001F910F91FF90DF90CF900895FC2EB6012A
:102B80008C2FBCDF0E941709019761F3EECF1F93D2
:102B9000CF93DF93FC012581C081D181CE01211526
:102BA00079F0611569F0C5DF182F682FCE010E94FA
:102BB0005B08BE01812FA2DFDF91CF911F910895A5
:102BC0000E947408182FF5CFCF93DF93EC01B1DF8B
:102BD000BE0194DF0E941709DF91CF910895FC0197
:102BE0002481211599F080819181EEDF282F929523
:102BF0009F70963099F060F4925F9F70923030F43D
:102C0000203FB1F038F481E0283E38F080E00895AC
:102C10009A5FF3CF81E0243FC9F7089591E0213F07
:102C200009F090E081E0283E08F080E0892B0895CB
:102C300081E00895673023E072078105910528F44B
:102C4000CB0187509F4F0C94A53380E00895CF921D
:102C5000DF92EF92FF92CF93DF93EC01C880D9808F
:102C6000EA80FB80B601C701E5DF9FEFC91AD90AE8
:102C7000E90AF90AC882D982EA82FB82DF91CF9100
:102C8000FF90EF90DF90CF90089585E290E00E9452
:102C9000A533863269F486E290E00E94A533803144
:102CA00039F487E290E00E94A53391E0823009F088
:102CB00090E0892F8170089548E050E067E170E06E
:102CC0008CE795E00E94B2331092FA02089589E2EF
:102CD00080937C058091230190912401A09125018E
:102CE00080937D0590937E05A0937F058FE7809369
:102CF00080058FEF80938105DFCFA5E1B0E0E3E8A9
:102D0000F6E10C94D232C090AC02D090AD02E090CB
:102D1000AE02F090AF0264DB2B013C014B015C0181
:102D20008C189D08AE08BF085BDBAB01BC0140936B
:102D3000AC025093AD028093AE027093AF02A091AB
:102D40003505E5E3F5E08A2F90E02FEFC20ED21EA5
:102D5000E11CF11CC418D508E608F708A9132DC01A
:102D6000809335057090F50280910D01823009F451
:102D7000B4C498F5811138C010920E014093F60248
:102D80005093F7026093F8027093F90289E2E5E349
:102D9000F5E0ABEFB2E001900D928A95E1F78091FA
:102DA0007C05837021F080917C05869586958093C3
:102DB000F50281E080930D0113C0218D328DC21682
:102DC000D306E104F10420F481509F5F3296C6CF10
:102DD000280D391D218F328FF8CF833009F487C435
:102DE0006596E2E10C94EE3280910C01781226C0D7
:102DF00090917C05937020910B0130E081E0921757
:102E0000130609F480E08093100180918105909170
:102E10000F01981739F080930F0140E060E080E0E7
:102E20000E94C70D872D8E3158F4E72DE150ED310A
:102E300060F4F0E0EF51FC4C0C94383381E0E3CFC8
:102E40008F3F09F41AC480E0BDC080911001811544
:102E5000D1F340E060E080E00E94C70DF4CF8091A4
:102E60000E010E94C90D8983192F60917D05709113
:102E70007E0580917F050E94080A062FF72EE82E16
:102E8000898190E08E839F838E81181709F028F442
:102E900081E0103108F496C0D6CFEE81FF81E35B6C
:102EA000FE4F84A990910F01892339F02E2D4F2DCB
:102EB000602F8E819F810E947E0D8E819F81019661
:102EC000E1CF80910E010E94C90D8983192FF090E6
:102ED0007D0500917E0580917F058A836F2D702F7F
:102EE0000E94080AE62ED72EC82E609180056F0D2D
:102EF000702F8A810E94080A062FF72EB82E89812A
:102F000090E08E839F838E81181711F208F2EE8174
:102F1000FF81E35BFE4F94A980910F01892361F04B
:102F20002B2D4F2D602F90FD03C02C2D4D2D6E2D80
:102F30008E819F810E947E0D8E819F810196E1CFBF
:102F400080910E010E94C90D8983192FF0907E0592
:102F5000E0907F056091800580E40E948A0A082F36
:102F6000898190E08E839F838E81181709F008F481
:102F70008FCFEE81FF81E35BFE4F84A990910F011B
:102F80008923C1F0EE81FF81EE0FFF1FE35BFE4F4F
:102F9000858982958F7060917D05809F600D1124D9
:102FA0007F2D8E2D0E94080A472F282F8E819F810A
:102FB0000E947E0D8E819F810196D4CF8DE39BE090
:102FC0000E941A0E90910E019F5F90930E01811145
:102FD00007CF82E080930D0180911001811100CF15
:102FE0007110FECE83E0E6CE80E59BE0E9CF84E879
:102FF0009BE0E6CF87EB9BE00E94D10DE3CF83ED12
:103000009BE0FACF8EEE9BE0DBCF80EF9BE0D8CF4A
:1030100080910E010E94C90D8983F92E609180056F
:1030200066958091F6029091F7020E94920AE82E2E
:10303000898190E08E831F828C01000F111F035B3A
:103040001E4F8E81F81609F020F481E09F2D9031FB
:1030500021CFEE81FF81E35BFE4F84A990910F01A8
:10306000892361F1F80144894057550B2589205285
:10307000330B449FB001459F700D700D1124229FAA
:10308000C001239F900D900D1124860F971F0E9461
:103090009F0A90E0BC01660F771F680F791F759536
:1030A00067956E0D70917E0580917F050E94080ADC
:1030B000472F282F8E819F810E947E0D0E5F1F4F0C
:1030C0008E819F8101968E839F83BBCF89EF9BE08A
:1030D00093CF89E09CE00E94590E74CF84E39CE07A
:1030E000FACF80910E018983811119C0609180050A
:1030F00020E1620F08F46FEF8091F6029091F702E1
:103100000E94920A6AE070E00E94BE32892B39F474
:1031100080E10E94E30A80930701109208018981EF
:103120000E94C90D9A8389839091100191111AC050
:10313000209107013091080128173105B8F08A81E4
:103140002817310598F4822F0E94800D81E1809329
:103150000701109208010AC089810E94800D8981AF
:103160008F5F898389819A818917B0F381E09A8181
:103170006ECF80910E018983811119C06091800505
:1031800020E1620F08F46FEF8091F6029091F70250
:103190000E94920A65E070E00E94BE32892B39F4E9
:1031A00080E10E94E30A8093090110920A0189815B
:1031B0000E94C90D9A8389839091100191111AC0C0
:1031C0002091090130910A012817310578F28A818E
:1031D0002817310558F6822F0E94A80D81E18093AF
:1031E000090110920A01C2CF89810E94A80D89812C
:1031F0008F5F898389819A818917B0F3B7CF8BE676
:103200009CE0DECE81E89CE0DBCE82EA9CE0D8CE7A
:1032100080910E018983811109C08091100181156F
:1032200029F080E10E94E30A8093B40289810E9420
:10323000C90D192F2091B0023091B1024091B20214
:103240005091B3022E833F83488759874091F602FD
:103250005091F7026091F8027091F902CE80DF8000
:10326000E884F984C416D506E606F70608F010CE01
:103270009091B402981728F1911718F5892F90E0D2
:103280008E831F82FC01E35BFE4F84A990910F01A6
:103290008923B9F00E94CE0A81FD3AC00E94CE0A6D
:1032A000082F80E80E94E30A8158782F80917F05DB
:1032B000602F0E94080A472F282F8E819F810E942D
:1032C0007E0D103108F4E4CD80E10E94E30A809382
:1032D000B4026091800580E097E00E94920A20E0AD
:1032E00038E0281B390B8091F6029091F702A091EB
:1032F000F802B091F902820F931FA11DB11D8093B6
:10330000B0029093B102A093B202B093B302C0CDC9
:1033100080E070E000E0CCCF8091E5029091E60281
:10332000A091E702B091E8024091F6025091F702B5
:103330006091F8027091F902481759076A077B07F4
:1033400008F481CD8091100181115AC080910E0145
:103350000E94C90D192FE82EF12CC701880F991F63
:103360008E0D9F1D8B549D4F8E839F83E11608F415
:1033700074C0103108F48CCD812F8150990B9C01C1
:10338000220F331F280F391F2E833F83A90168EBBB
:1033900072E085EB92E00E9474330E94CE0A2E8187
:1033A0003F812B543D4F2E833F8381FF6FC0F90136
:1033B0001082118212822091800530E1230F08F4DF
:1033C0002FEF60E1822F90E00E94920ABC0188EB0F
:1033D0009BE00E94BE328091F6029091F702A0918C
:1033E000F802B091F902860F971FA11DB11D8093BD
:1033F000E5029093E602A093E702B093E80248CD7D
:1034000040E060E080E00E94C70D05EB12E085EE31
:1034100092E08E839F830E94CE0A81FF0CC0F80148
:103420001082118212820D5F1F4F8E819F81801743
:10343000910789F78BCF0E94CE0AF82E80E80E9470
:10344000E30A8158782F6F2D80917F050E94080A2A
:10345000F801608371838283E6CFF701E35BFE4F5F
:1034600084A990910F01892341F0EE81FF8122818F
:1034700041816081C7010E947E0D8E819F810396EC
:103480008E839F838FEFE81AF80A70CF0E94CE0ACE
:10349000082F80E80E94E30A8158782F602F8091DE
:1034A0007F050E94080AEE81FF8160837183828319
:1034B00082CF80911001811559F040E060E080E0FA
:1034C0000E94C70DEDEEF2E088E011928A95E9F7CF
:1034D00080910E010E94C90D282E592E8091F6026E
:1034E0009091F702A091F802B091F9024091E9029F
:1034F0005091EA026091EB027091EC024817590773
:103500006A077B0708F098C060917D0570917E0581
:1035100080917F050E94080A6B837C838D838DEEEA
:1035200092E08E839F830DE411E07C0148010B5FE4
:103530001F4F5801670182E001C081E08A83F601D4
:1035400081916F0181117BC0312C412C1982F401D2
:1035500081914F01F50162905F01821580F0851520
:1035600070F490E0FC01E35BFE4F24A930910F0161
:10357000232329F0232D442D69810E947E0D62149E
:1035800098F0651488F4E62DF0E0DF01A35BBE4FF0
:10359000D4969C9180910F01982331F0232D442DD6
:1035A0006981CF010E947E0D8A81813031F682E0EF
:1035B000E80EF11C81E00136180709F0B7CF852D20
:1035C000803108F439C0EE81FF81818180830E94BF
:1035D000CE0A837091E0811190E0EE81FF819183AA
:1035E000CF0102968E839F839C01255F324059F75D
:1035F0002091800530E1230F08F42FEF60E1822F46
:1036000090E00E94920ABC0188EB9BE00E94BE32CF
:103610008091F6029091F702A091F802B091F90220
:10362000860F971FA11DB11D8093E9029093EA02B6
:10363000A093EB02B093EC0281E0952D08CD3D8084
:103640004C808B81898383CF8BEB9CE00E94A50EFD
:10365000B9CC88EC9CE0FACF8BED9CE00E94140F73
:10366000B1CC80EF9CE0FACF84E29DE0F7CF81E51A
:103670009DE0F4CF86E69DE0F1CF9091F702A09116
:10368000F802B091F902892F9A2FAB2FA695979542
:103690008795A69597958795837090E0A0E0B0E018
:1036A00082309105A105B10589F083309105A1050E
:1036B000B10579F040E060E010979040814059F406
:1036C00064E180E00E94C70D82E074CB44E160E0D9
:1036D000F8CF44E164E184E1F5CF70920C01809170
:1036E0007C05837080930B010E9446137BCC8091F4
:1036F000FA028111E1DAC090F602D090F702E09070
:10370000F802F090F9020E94F011DC01CB018C1953
:103710009D09AE09BF094097A105B10508F460CB2A
:1037200010920D015DCBA0E1B0E0E9E9FBE10C9462
:10373000D432FE013196DF0180E11D928A95E9F7CE
:1037400001E310E099EFA92EB12C27E0422E23E0EF
:10375000522E612C712C9E2E8F2E6201730181E1FD
:1037600048165104610471041CF080E1C82ED12C6C
:10377000A601B501892D982D0E94B233AC0CBD1C59
:103780000D2C000C00084C185D08600870080150F2
:10379000104019F76096E0E10C94F0326FEF85E28B
:1037A00090E00E94C1336FEF86E290E00E94C13347
:1037B0006FEF87E290E00E94C13360E088E290E022
:1037C0000E94C1337ED8AFDF66E285E290E00E94BE
:1037D000C13360E186E290E00E94C13362E087E29B
:1037E00090E00C94C133AB0124E630E0BC0188E7E3
:1037F0000E942A329C0181E0232B09F080E0089589
:1038000080912C058115F1F00E94F011DC01CB01B3
:10381000805A9541AF4FBF4F80932D0590932E0551
:10382000A0932F05B093300580912B0581110AC01C
:1038300062E070E08CE69DE0D6DF811519F081E052
:1038400080932B05089580912C05811561F080915E
:103850002B05811541F062E070E08AE69DE0C3DF50
:10386000811110922B0508951F921FB61F921124EB
:103870008F939F93AF93BF9380913305811113C0B2
:103880008091530290915402A0915502B09156023A
:103890004196A11DB11D8093530290935402A093B1
:1038A0005502B0935602BF91AF919F918F911F9097
:1038B0001FBE1F9018952FB7F894809153029091D6
:1038C0005402A0915502B09156022FBF0895CF9394
:1038D000DF93EC01F0DF8C1B9D0BDF91CF910895FE
:1038E000A4E0B0E0E6E7FCE10C94DB32FE013196A7
:1038F000DF0184E01D928A95E9F781EAE82E81E0F4
:10390000F82E8F01CE2EB12EF70181917F018F3FCE
:1039100009F43EC0F894E82FE295EF70F0E021A1A1
:103920008F7041E001C0440F8A95EAF7922F942BE3
:1039300091A392A1842F8095892382A3789400C0BB
:10394000E5EAF1E031E0D12C21912F3F79F0A22F6F
:10395000A295AF70A05EB0E08C9190E02F7002C095
:10396000959587952A95E2F780FF3CC080E0D82A9C
:10397000330F81E0EA3AF80739F7F70182918F3F78
:1039800011F00E94F20980EA8A95F1F7F801D082DD
:103990000F5F1F4F85EAE81681E0F80609F0B4CF03
:1039A00044E050E06C2D7B2D8CE895E00E9467335D
:1039B000892BD1F089819A81AB81BC8180938C0560
:1039C00090938D05A0938E05B0938F0581E0809331
:1039D000870571DF80938505909386052496E9E03D
:1039E0000C94F732832FC3CF809187058115B1F3F3
:1039F00000918505109186055EDF801B910B059770
:103A000068F344E050E06CE875E088E895E00E94D7
:103A10006733892B81F080918C0590918D05A09161
:103A20008E05B0918F058093880590938905A093AA
:103A30008A05B0938B0510928705D0CF4F925F9285
:103A40006F927F928F929F92BF92CF92DF92EF926E
:103A5000FF920F931F93CF93DF9380912C058115D5
:103A600009F4EFC08AE293E080932803909329033E
:103A7000C0912403D09125031EDF8C1B9D0B883839
:103A8000934108F0EEC080918B028111EAC08DE570
:103A90009BE00E9473108091260390912703892B4D
:103AA00009F4B5C080912A058111B1C0A9DE8091C9
:103AB000260390912703009709F4A9C0C82FC1706D
:103AC000D0E010E080FD0FC041E050E01F5FEA0150
:103AD000012E02C0CC0FDD1F0A94E2F79E012823BD
:103AE0003923232B99F38091320580FFCCC0912F8D
:103AF000990F990F990F392F395F80E023E0909348
:103B0000020180930501309303012093060124E60E
:103B100030E047E050E060E071E088E70E94E0318B
:103B2000892B09F074C080E2189FA00111248091B4
:103B3000320580FFBAC0ECE8F2E080E211928A958B
:103B4000E9F73FE3632E31E0732E8BE391E04C0104
:103B500063E471E0D301ED913D01D4010D914D017C
:103B6000040F152F111DF0E0E457FD4F80E090E0A9
:103B700027E0B22EB81ACC24C394082E01C0CC0C76
:103B80000A94EAF79801265D3C4F2901E12CD20105
:103B9000FD902D01FC202B2D2E19277030E0AF2D2C
:103BA000022E01C0AA0F0A94EAF7DA2E3195219568
:103BB00031092770332701C0F6942A95EAF7DF28E8
:103BC0002081D22AD082E3942E2D283001F701964D
:103BD00031968830910561F66615770509F0BACF00
:103BE00004E610E020E24CE852E060E488E70E943E
:103BF0007032892B61F4C095D09580912603909105
:103C00002703C823D923C0932603D0932703809189
:103C10002B058115B1F00E94F011C0912D05D091B6
:103C20002E05E0912F05F0913005DC01CB018C1BB6
:103C30009D0BAE0BBF0B8F3F9F4FAF4FBF4708F49D
:103C400002DEDF91CF911F910F91FF90EF90DF90F7
:103C5000CF90BF909F908F907F906F905F904F908C
:103C6000089581E080938B028091D8050E94DA0745
:103C70004DE052E0849F9001859F300D1124C901D1
:103C8000875D9C4F06CF20E2129FC0011124880F50
:103C9000492F441F550B5195242F912F9295990F21
:103CA0009076392F315E842F2ACF465D5C4F04E633
:103CB00010E020E230E099CFFEDD9C019091CD052F
:103CC0008091CE05982B21F02093790530937A05C9
:103CD0009091CF058091D005982B21F02093770506
:103CE00030937805E091B205F091B305309759F023
:103CF0000680F781E02D309731F082E08093CB058C
:103D00008BEC95E009950895611509F448C0E82FFA
:103D1000ED5CE33150F4F0E0E250FC4C0C943833AD
:103D20000E94231181958093CE05C6CF0E94231156
:103D3000FACF0E94231181958093CD05F6CF0E9482
:103D40002311FACF0E9443118093CF05EECF0E943A
:103D500043118195F9CF0E94431181958093D0053D
:103D6000E4CF0E944311FACF815D990B21E001C09D
:103D7000220F8A95EAF78091CC05822B8093CC059F
:103D8000D4CF8091CA0581608093CA05CECF80913F
:103D9000CA058260F9CF8091CA058460F5CF409151
:103DA000CD058D3C59F48091CE0587FF0DC0109252
:103DB000CE05411559F41092C90508C08E3C81F416
:103DC0008091CE0518169CF3411581F08091CF05A6
:103DD0009091D005892B09F0A8CF1092C805A5CFE6
:103DE0008F3C41F447FFF0CF1092CD058091CE0576
:103DF0008115E0CF803D19F41416B4F3E5CF90910E
:103E0000CF05893D29F41916FCF61092CF05DCCFB9
:103E10008A3D19F497FFD8CFF8CF9091D0058B3D0C
:103E200029F497FFD1CF1092D005CECF8C3D19F455
:103E30001916CCF3C9CF982F915D983078F4815D35
:103E4000990B21E001C0220F8A95EAF7822F809515
:103E50009091CC0589238093CC05B6CF8D3D31F46C
:103E60008091CA058E7F8093CA05AECF8E3D21F426
:103E70008091CA058D7FF7CF8F3D09F0A5CF809146
:103E8000CA058B7FF0CFCF93C82F811509F463C08B
:103E90008450813A08F061C080912101813041F164
:103EA000EAE1F2E080E292E02081C217C1F13196AE
:103EB0008E179F07C9F7809121018130B1F1AAE1E6
:103EC000B2E0EFEF80E09C91C91709F442C011966F
:103ED000EF3F19F4911101C0E82F8F5F863099F7F9
:103EE000EF3FB9F1FE2FFF0FFF0BE85EFD4F30C033
:103EF0008091DA0587FFD4CFEC2FE695E695E6951D
:103F0000F0E0E05EFD4F828190E04C2F477021E0B1
:103F100001C0220F4A95EAF78223892B31F08C2FBA
:103F20000E94C5110E94BC14C6CF8091DA0587FF9C
:103F3000C6CFEC2FE695E695E695F0E0E05EFD4F06
:103F4000C77081E001C0880FCA95EAF7C281C82B0B
:103F5000C2830E94BC14CF9108958C2F805E88305C
:103F600060F4C77081E001C0880FCA95EAF7C0917C
:103F7000D405C82BC093D405ECCF8C2F855A833041
:103F800030F48C2F8452990B0E947711E4CFEC2FE0
:103F9000E85AEB3150F4F0E0EE0FFF1FE052FE4F15
:103FA000808191810E949E11D6CF8C2F8D5C8331B0
:103FB00090F661E08C2FA8DECECF811569F1982FA5
:103FC0009450913A20F40E94C5110C94BC14982F7F
:103FD000905E983058F4982F81E091FD84E090FD38
:103FE000880F92FD82950E940F09EFCF982F955A66
:103FF000933020F480E090E00C947711982F985A39
:104000009B3120F480E090E00C949E11982F9D5CF1
:10401000933110F460E078CE08951F93CF93DF932F
:10402000182FEB0130DF209731F4812FC6DFDF91AD
:10403000CF911F9108958FE99FE00197F1F700C09C
:1040400000002197F0CF1092D4058091210181309A
:1040500019F58091DA0587FF1FC0E2E2F2E08EE1F8
:1040600011928A95E9F780E090E00E94771180E054
:1040700090E00E949E111092DC050E94BC14EBECB3
:10408000F5E086E011928A95E9F71092C905109241
:10409000C8051092CA0510CEEAE1F2E086E0E0CF52
:1040A000D2DF88E19CE00FB6F894A8958093600079
:1040B0000FBE90936000FFCFA4E0B0E0E2E6F0E234
:1040C0000C94D7326C01FC018481811509F498C0ED
:1040D00061E0C6010E94C715AC01F60125812115DA
:1040E00009F4DAC39481892F8250823060F4E08130
:1040F000E33048F4F0E0EF52FA4F80819230D9F586
:1041000091E0890F8083CA0197578038910508F0A4
:10411000D9C0142F403108F064C066E073E080E03D
:1041200090E00E941A1681115CC0A12CB12C4501AF
:10413000111123C089829A82AB82BC828E010F5FEB
:104140001F4FC8010E942716B02EA12E813008F4FF
:1041500048C009F071C0C8010E942716813009F5D6
:10416000C8010E94271660E570E0893311F060E015
:1041700070E053DFE6CF9FEFC4CF87E0881683E07F
:104180009806A104B10469F1B401C5010E941A1690
:104190009FEF891A990AA90AB90A8111EECF115025
:1041A000C7CF823029F4C8010E9427166CDEC9CF20
:1041B000833029F4C8010E942716FFDEC2CF843065
:1041C00071F4C8010E942716E12CF12C282F2053EE
:1041D000330B2A303105C0F0E114F10419F58111D7
:1041E000B0CF8091D905877059F0F601858181158E
:1041F00039F08091DB0582FF03C082E00E94D20883
:104200002496EDE00C94F3324AE04E9DC0014F9DA0
:10421000900D1124280F391F79018B2D9A2D0E94A2
:104220002716D4CFEFE9FFE03197F1F700C0000087
:1042300091E0E91AF108D0CFE82FF0E0E054F14F17
:104240009491792E282F26952695269530E0F90110
:10425000E055F14FE4908770F12C082E02C0F594E0
:10426000E7940A94E2F7F901E056F14FA490B12CDB
:10427000082E02C0B594A7940A94E2F72057314F54
:10428000F9018490912C02C0959487948A95E2F765
:10429000E0FE02C081EEF7DDA0FE02C086EEF3DD97
:1042A00060E070E0872DB9DEA0FE02C086EE85DEFC
:1042B000E0FE02C081EE81DE80FE43CF60E070E070
:1042C0008CE257CF9091D4059272FA01E052F847F0
:1042D000EB30F10508F5EF5EFB4C0C94383381E0D0
:1042E0000E949F0F7ECF911579F10E94E60F79CF42
:1042F000911579F10E94081074CF911579F10E94FF
:104300001D106FCF911579F10E9435106ACF91156C
:1043100079F10E944B1065CF47378CE75807C9F5F4
:1043200081E00E94F20743E062E081E00E948B0896
:1043300058CF0E94A80F81E00E94780D52CF0E94B2
:10434000B50FF9CF911589F20E94DC0F4ACF911574
:1043500089F20E94FF0F45CF911589F20E9411103A
:1043600040CF911589F20E9429103BCF911589F217
:104370000E94411036CF911529F00E94641031CF70
:104380009115D9F30E9455102CCF47378CE7580769
:10439000E1F048378CE75807E1F0CA01805E9245AA
:1043A0008097D8F421112BC04F7101E010E002C0BA
:1043B000000F111F4A95E2F7602F83E090E00E9402
:1043C000C133802F0E94EC070CCF81E00E94FB07D5
:1043D000AACF82E02115D1F3A4CF211571F14B357D
:1043E0008CE7580709F14C358CE7580791F04A35AE
:1043F0008CE75807B9F041308CE75807E9F04330B3
:104400008CE7580799F041155C47B9F41CDE0E940F
:104410006C138091DB05002482FF0394802D0E94A1
:10442000F413DFCE81E0FBCF80E0F9CF6FEF7FEFB9
:1044300080E090E00E94DB3333DEF60100811181E1
:10444000C801211509F446C00E949915F82E682F5D
:10445000C8010E945B08B8018F2D0E947E150E9442
:104460001709182FA92EF601E580F680F2948FE047
:10447000F8228091D905877001F1BE2CE114F1F08A
:10448000892F807F803461F0812F805E8830A8F092
:10449000892F807E803221F4123078F0F11469F097
:1044A0008091DB0582FF09C082E00E94D2088091E2
:1044B000D9058770BB24B3948111B12CEA2DE29504
:1044C000EF708A2D803C08F066C0F0E0E45EFB4CA3
:1044D0000C9438330E947408F82EBDCF0A2D0F704B
:1044E000803110F00295007FE114B9F0011569F0F8
:1044F000812F805E883010F0111109C08091D405A1
:10450000802B8093D4050E94BC14812F3EC08091E3
:10451000DC05802B8093DC05F6CF812F4EDD011565
:10452000D1F1812F805E883010F0111104C0802FEE
:104530000E940F0906C000958091DC0580238093BE
:10454000DC050E94BC1427C00A2D0F70807F8032CA
:1045500011F00295007F113040F009F463C0E114BE
:1045600009F46EC0F11499F1D0CF8091DB0582FD82
:104570002AC0E11461F0011539F08091D405802B37
:104580008093D4050E94BC1480E07DDC04C080E0F0
:1045900014DD0111CCCFB11409F4AFC08091D9055D
:1045A00080FDABC0F60115828695869586950E94A2
:1045B000F207C60181DD8091D9058695869586959D
:1045C0000E94FB079AC0E11499F0F11004C0802FFB
:1045D0000E941215E0CF8F2D8130E9F68091D5052C
:1045E000902F98230917B9F2802B8093D505D3CF4C
:1045F000F110D1CF802F0E941B159091D505802FEF
:10460000892329F0802F809589238093D505809177
:10461000D605902F982309F4BECF00950823009368
:10462000D605B9CF8F2DE11421F0863008F0B3CF35
:10463000CECF853008F0AFCF802F0E941B15ABCFB7
:10464000F114D1F3193349F48FEF97EE23E0815041
:1046500090402040E1F700C00000812FAEDC9BCFEE
:10466000869586958370813060F009F094CF812F14
:104670009A2D9370E11002C080E090E00E949E119C
:104680008ACF812F9A2D9370E11002C080E090E0D4
:104690000E94771180CF6E2D812F36DB7CCF837007
:1046A000E1F5E11028C0812F829586958770880FEB
:1046B000880F412F4F70082E01C0440F0A94EAF76B
:1046C000212F207114FF06C02FE001C0220F8A9510
:1046D000EAF720958A2D869586958370982F8230EB
:1046E000A1F08330B9F08091D705913059F0242B97
:1046F00082230E94EC070E94681160E0C6010E94BC
:10470000C7157ECD842B822BF4CF242B8091D70527
:104710008227EFCF822F842BECCFE11459F1A0FE3A
:10472000EACF812F829586958770880F880F412F59
:104730004F70082E01C0440F0A94EAF7212F207110
:1047400014FF06C02FE001C0220F8A95EAF72095DA
:104750008A2D869586958370982F823091F08330CC
:10476000A9F08091D805913049F0242B82230E9432
:10477000EF07C1CF823008F4BECFD3CF842B822B7A
:10478000F6CF242B8091D8058227F1CF822F842B5E
:10479000EECF8F70082FE11431F00E94F207812FC5
:1047A0000E941215A8CF812F0E941B15802F0E94F6
:1047B000FB07A1CF123F79F168F4103FC1F0113F20
:1047C00089F0E11409F455C0F11409F44FC0812FA8
:1047D0005ADB91CF133F29F1143F99F79091DB05F4
:1047E00092FD2CC08A2D8F71E11409F317C08F2D13
:1047F000E11479F0853008F07ECF8A2D8F71282F53
:1048000081E001C0880F2A95EAF79091D8058927A1
:10481000AECF8630F0CF8F71E110C9CF0E94F20782
:104820006ACF80E0E11409F4A2CF8A2D8F71982F0E
:1048300081E001C0880F9A95EAF799CFE11459F009
:104840008F7192FFEBCF982F990F990F990F93606B
:104850009093D905E3CF81E00E94D2088F2D82305A
:1048600008F449CF82E00E94D20845CF8A2D8F718B
:10487000D5CFF11471F0193349F48FEF97EE23E09F
:10488000815090402040E1F700C00000812F95DB6F
:1048900032CF8A2D8F718BCF9091D4059272FA010D
:1048A000E054F847EF30F10508F06FCDE85DFB4CC0
:1048B0000C94383380911D06803170F480911C0671
:1048C000811551F0E091DE052091DD05309118064B
:1048D000409117062E1301C00895BF0187E0E89F9D
:1048E000F0011124DF01A152BA4F14968C91149754
:1048F000811551F111968C911197831325C08C91DC
:10490000841322C015968C91159781111DC01296A3
:104910008D919D91A0911906B0911A068A1B9B0B4F
:10492000883C910588F480911D068F70806180938A
:104930001D06EB51FA4F80818F708061808387E183
:1049400096E0BADB0C94C8086F5F7F4FFB01E770FD
:10495000C1CFADE0B0E0EFEAF4E20C94D7328C01C5
:1049600086E0F801DE01189601900D928A95E1F734
:10497000F801F580848197E1892E96E0992E709058
:104980001B06711017C0811591F0F11409F40EC1C6
:10499000C8010E94EF15811509F408C187E0F801EC
:1049A000A7E1B6E001900D928A95E1F783DFFF243D
:1049B000F39455C0D080A280B380C0901C06209193
:1049C000190630911A06A501421B530BC11409F4B4
:1049D000BDC0483C510508F076C0811541F3809177
:1049E00018069180E0901D069E2D903108F057C06A
:1049F000981214C0809117068D1110C0F11049C093
:104A00008E2D8F70806180931D0687E196E054DBC8
:104A100080911D06F8018683F12C21C0F11039C068
:104A200040E0692D8D2D0E94A90840E0692D8D2D53
:104A30000E94A908F82E8111EFCF888599850E94E0
:104A4000E415292F22952F70903470F49F70223036
:104A500098F09115A9F0F8019681903188F48F2D86
:104A60002D96EDE00C94F3322A5F2F70223060F027
:104A7000C80122DBFC2CF3CF911511F0811579F3DD
:104A8000805E883060F3F4CF803F48F3815F8330ED
:104A9000F9CF80911D06816080931D06BDCF9812CD
:104AA00037C0809117068D1133C0F11031C0E682F6
:104AB000C80102DB87E0F801A7E1B6E001900D92A2
:104AC0008A95E1F774CFE0901D069E2D903148F451
:104AD00087E196E0F1DAF40187E011928A95E9F72F
:104AE0009BCF811509F463CF9091180681819813AB
:104AF0000FC0809117068D110BC0F11009C0E6821E
:104B0000C801DADAF40187E011928A95E9F74FCF0C
:104B1000C8010E94EF15811509F448C0F11409F489
:104B200045C08E2D803208F439CF809117069091C0
:104B3000180689839A83AB82BC827D821E82809113
:104B40001D068F83CE010196B7DA28CF483C510568
:104B500008F0C1CF811509F42ACFF11439F19091F1
:104B600018068181981318C0809117068D1114C002
:104B700080911D0680FD9ECF803108F49BCF8683F7
:104B8000807F803F09F494CF8681982F907F905F3B
:104B90008F70892B86838CCFC8010E94EF158111FD
:104BA000FDCE80911D06816080931D06C80184DAC8
:104BB000FECEABE1B0E0EFEDF5E20C94E0324E8BCF
:104BC0005F8B688F798F8A8F192F9B8F911110922D
:104BD000DC051D8A86E0FE017696DE011F960190B7
:104BE0000D928A95E1F70A8D011561F00B8B1C8BF4
:104BF00061E0CE010F960E94C71561E0CE010F96CD
:104C00000E94C7150B8B1C8B87E0FE013F96DE01CF
:104C1000189601900D928A95E1F7CE01089699DEDB
:104C200081112EC02091DD053091DE0587E0AE01B7
:104C3000485F5F4FFA0147505109DA0101900D9228
:104C40008A95E1F78C858115D9F0822F90E08395C4
:104C5000877090E0AC0134171506E1F097E0929F61
:104C6000D0011124A152BA4F9E012F5F3F4FF9018D
:104C700001900D929A95E1F74093DD050E94C808D6
:104C80008091DE059091DD05891310C06B96E4E0FC
:104C90000C94FC32D8D91092DD051092DE05E7E1C4
:104CA000F6E087E011928A95E9F7EACF27E0829F44
:104CB000C001112481529A4F4CDE811539F3809145
:104CC000DE059091DF05019687708093DE05D8CFD1
:104CD000A6E0B0E0EEE6F6E20C94E0320E945B1C47
:104CE0008C0180919005909191058017910771F04A
:104CF00019821A820E945B1CBC0149815A8180E0A2
:104D000090E057DF00939005109391052696E4E01C
:104D10000C94FC32AAE2B0E0E0E9F6E20C94E13255
:104D200083E492E0FC0101962091F100208322E0CF
:104D30008B349207B9F780914402893009F459C045
:104D4000C8F4823009F4B7C0833009F486C08130DA
:104D500089F18091E80083FFEBC08091430290913C
:104D600044029A3008F0E4C0E92FF0E0E95CFB4C23
:104D70000C9438338A3009F48DC08B3051F7809110
:104D80004302813231F78091470290914802892B8A
:104D900001F78091E800877F8093E8000E948912E4
:104DA00081E090914502911101C080E08093210142
:104DB0004AD9CFCF80914302813A59F68091E800D9
:104DC000877F8093E8008091470290914802892B69
:104DD00061F060E080E090E070E00E94FC11809162
:104DE000E8008B778093E800B4CF68E08BE492E032
:104DF000F3CF80914302813209F0ABCF809147021B
:104E0000909148028D7F892B09F0A3CF8091E80013
:104E1000877F8093E8008091E80082FF19C020918D
:104E2000F3008091F200922F029731F48091F1000B
:104E3000813011F0863021F48091F10080932001BF
:104E40008091E8008B778093E8000E94891281CFDF
:104E5000809184058111DFCF7CCF80914302813A1C
:104E600009F077CF8091470290914802892B09F091
:104E700070CF8091E800877F8093E8008091E80000
:104E800080FFFCCF809121018093F1008091E800A8
:104E90008E77D9CF80914302813209F05ACF809129
:104EA000E800877F8093E8000E9489128091460283
:104EB00080931F014ECF80914302813A09F049CF80
:104EC0008091E800877F8093E8008091E80080FF70
:104ED000FCCF80911F01D8CF803889F0823841F50E
:104EE000809147028F70873018F58093E900809198
:104EF000EB0085FB882780F91092E90006C08091BD
:104F00003405880F90914002892B9091E800977F9B
:104F10009093E8008093F1001092F1008091E800F6
:104F20008E7723C0811116C080914502813011F126
:104F30008091E80083FF0AC08091E800877F80931A
:104F4000E8008091EB0080628093EB00AA96E3E09A
:104F50000C94FD32823061F780914502811581F019
:104F60001092E9008091E800877F8093E8000E941A
:104F70008912DECF933009F080E080933405F0CFC2
:104F8000809147028F70282F2150263088F6809319
:104F9000E9002091EB0020FFE3CF933031F48091C2
:104FA000EB0080628093EB00DBCF9091EB0090618F
:104FB0009093EB0021E001C0220F8A95EAF720933D
:104FC000EA001092EA008091EB008860EBCF81113B
:104FD000AFCF809145028F77182F8091E3008078C2
:104FE000812B8093E3008091E800877F8093E80025
:104FF0000E9489128091E80080FFFCCF8091E3003D
:1050000080688093E30083E0111101C082E0809307
:1050100084058ECF8058823008F08ACF8091450277
:10502000909146028C3D23E0920791F583E08A83BC
:105030008AE289834FB7F894DE01139620E03EE0C0
:1050400051E2E32FF0E050935700849120FF03C01A
:1050500082958F703F5F8F708A30C0F0895C8D932E
:105060001D922F5F243169F74FBF8091E800877F41
:105070008093E8006AE270E0CE0101960E94FC1184
:105080008091E8008B778093E80052CF805DE7CF76
:10509000292F30E02330310509F44DC078F5213057
:1050A000310509F47CC08BE590E0EAECF1E02230B8
:1050B000310509F03DCF2091E800277F2093E800DB
:1050C0002091490230914A028217930708F49C010B
:1050D00040E02115310509F067C0411165C080919C
:1050E000E80082FDCDCF80918405811549F285309D
:1050F00039F28091E80083FFF2CFC2CF809147025E
:105100009091480221323105D9F12232310509F05E
:105110000FCF8330910508F00BCFFC01EE0FFF1F7E
:10512000E75DFE4F0190F081E02D8A5D9E4FDC012E
:105130008C9190E011C0282F30E0813089F022302E
:105140003105B1F0232B09F0F3CEE5E5F2E0E4916F
:105150008E2F90E0E5E5F2E0009709F4E9CEABCFC1
:10516000E9E4F2E0E4918E2F90E0E9E4F2E0F4CF9C
:10517000E7E3F2E0E4918E2F90E0E7E3F2E0ECCF9A
:105180008330910508F0D4CE880F991FFC01E15DB2
:10519000FE4F0190F081E02D89E090E08CCF82E11C
:1051A00090E0E5E2F2E087CF80918405811509F473
:1051B00067CF853009F464CF8091E80083FD60CF2C
:1051C0008091E80082FD8BCF8091E80080FF81CF45
:1051D0004091F3008091F200942F2115310519F0D0
:1051E0008830910550F041E0089709F040E0809147
:1051F000E8008E778093E8006CCF44914093F100F3
:105200003196215031090196E8CF803809F090CECF
:105210008091E800877F8093E8008091410280932D
:10522000F1007CCE811184CE80914502182F82300E
:1052300008F07ECE8091E800877F8093E80010938D
:1052400041020E9489121115F9F084E080938405CF
:1052500042E061EC81E00E94591242E261EC84E09C
:105260000E94591242E261EC82E00E94591242E22D
:1052700060EC83E00E94591280918405843051F4DF
:1052800082E08093220154CE8091E30087FDDDCF40
:1052900081E0DCCF81E0F5CFCDB7DEB7E5970FB683
:1052A000F894DEBF0FBECDBF85B7806885BF85B7D8
:1052B000806885BF84B7877F84BF0FB6F894A895B0
:1052C00080916000886180936000109260000FBE42
:1052D00080E890E00FB6F8948093610090936100AD
:1052E0000FBE81E08093220180EF99E08093160247
:1052F000909317020E9428130E94D9128091E20015
:1053000084608093E200789480918405811591F007
:105310008091E9001091EC008F7010FB112717F9B4
:10532000182B1092E9008091E80083FDF3DC1F70D8
:105330001093E90082E084BD93E095BD9AEF97BD9C
:1053400080936E000E944516811102C00E94CE1B00
:10535000EEE6F5E088E011928A95E9F783E0809324
:105360006D0510E060E0812F0E94B31061E0812F95
:105370000E94B3101F5F1330A9F78FE891E00197E7
:10538000F1F700C0000010E080916D05181708F4D7
:1053900088C001EA11E0F80181918F018F3F11F07F
:1053A0000E94F20981E0053A1807A9F795EAE92E6B
:1053B00091E0F92E0AEA11E0F70181917F018F3F18
:1053C00011F00E94F2090E151F05B1F7E8E8F5E0AB
:1053D00084E011928A95E9F7ECE8F5E084E0119217
:1053E0008A95E9F780E090E00E94AD33833E9E4FBE
:1053F00021F40E94451681112DC063EE7EEF80E0FE
:1054000090E00E94DB3360E082E090E00E94C133D4
:1054100081E08093D70561E083E090E00E94C13392
:1054200060E874E184E090E00E94DB330E9467163C
:105430000E94CE1B60E070E0AB018FE090E00E9424
:10544000D33360E070E0AB0183E190E00E94D3339E
:105450000E945C1682E090E00E94A5338093620572
:1054600084E090E00E94AD338093DA059093DB05F1
:105470000E94701C8FEF96E721E081509040204001
:10548000E1F700C000000E94701C8091880580FF39
:105490001AC06FEF7FEF80E090E00E94DB330E9444
:1054A0006C1360E0812F0E94D310082F61E0812FE0
:1054B0000E94D310E12FF0E0E659FA4F880F802BBD
:1054C00080831F5F61CF83E090E00E94A5330E943C
:1054D000EC070E94F0101092FB0240E150E06FEFE9
:1054E00070E084E193E00E9485331092350540E13D
:1054F00050E06FEF70E08EE495E00E94853381E02C
:105500008093FA0248E050E067E170E08CE795E0B4
:105510000E9495331092FA0280917C05843010F439
:105520000E9467160E945B1C8093240390932503BE
:105530001092320580E8809331050FD76BE070E060
:1055400085E89EE00E94F31B8115E9F18091320508
:1055500065E070E081FD38C180E89EE00E94F31BA9
:10556000811589F16DE070E08EE69EE00E94F31BEC
:10557000811549F10E94F011DC01CB01805A95415F
:10558000AF4FBF4F80932D0590932E05A0932F050D
:10559000B0933005EAE2F3E0DF0180E092E01D9293
:1055A0000197E9F7E0932803F09329038FEF9FEF2A
:1055B000809326039093270381E080932C058093AA
:1055C0002B0510922A0583E191E08093B205909318
:1055D000B3057E018FEFE81AF80A809184058530C3
:1055E00069F400E110E482E1D82E809184058530D1
:1055F00009F4EDC00E9423200E9468110E94701CD3
:1056000083E695E08EA79FA788E895E08BAB9CABDF
:10561000FC01A3E6B5E09D91808125E0A736B207A5
:1056200009F431C131969817B1F3BEE5AB2EB5E060
:10563000BB2E1DE4412E11E0512E1DA6EBA9FCA9A5
:105640006190EBABFCABEEA5FFA58191EEA7FFA7A8
:10565000861509F4A7C086258DABC12CD12C332427
:1056600033948DA9832109F491C0262C232081E055
:1056700090E00C2C02C0880F991F0A94E2F788ABC7
:1056800099ABF501808190E028A98223892BA1F4B0
:10569000C9828DA58A830E945B1C8B839C8381E0D9
:1056A0008D8391E0211001C090E09E8349815A8151
:1056B0006B817C818D817DDA211439F0F201EC0D52
:1056C000FD1D80818F3F09F0F4C0712C072D10E083
:1056D00080913505870D9927991F09974CF1E8E0CE
:1056E0008E2E912C801A910AB8016A5C7A4FA4011F
:1056F00086E395E0F9D7B801625C7A4FA4018EE3A6
:1057000095E0F2D7A401440F551FB801660F771F2B
:10571000625B7A4F8EE495E0E7D7B8016A5B7A4F17
:10572000A40186E495E0E0D788E0871980933505E9
:10573000711421F1409135058AA990E0242F30E0C1
:10574000F901EB5CFA4FDC01AA0FBB1FAF59BE4F4A
:105750005C915183880F991F835B9E4FDC015596A6
:105760008C9181878AA9818B220F331FF901EB5C11
:10577000FA4F118E128E4F5F40933505211006C0EF
:1057800088A98095F501908189238083330C8FEF60
:10579000C81AD80A85E0C816D10409F062CFEEA570
:1057A000FFA562928DA58F5F8DA78FEFA81AB80A0B
:1057B00085E0480E511C8DA5843009F03FCF0E9432
:1057C000F011CC24C39463C08BE79EE0C7CE8091D8
:1057D0008405843039F10E947D160E94231C1092AA
:1057E000330588E190E00FB6F894A89580936000A7
:1057F0000FBE1093600083B7817F846083BF83B73F
:10580000816083BF7894889583B78E7F83BF0FB6FE
:10581000F894A89580916000886180936000109250
:1058200060000FBE0E94701CE8E8F5E0AEE5B5E050
:1058300080E021912D9391E0211101C090E0892B0E
:105840002CE835E02E173F07A1F7811509F4CDCEDE
:1058500080913405811509F4C8CE09BDD9BC09B4BD
:1058600000FEFDCF8091D8008F7D8093D80080917D
:10587000E00082608093E0008091E00081FDFCCF39
:105880000E942320B2CE9813D0CE22DAC12C0E94DF
:105890007D1680917605811551F0809170051092EA
:1058A00076058093710580916E0580936F0500E009
:1058B0004FC08AAB7724739409CFD09071051091B3
:1058C000700561E0802F0E94D310B82E60E0802F19
:1058D0000E94D310BB0C8B29202F30E0D901A65990
:1058E000BA4FEC919E2F9370891789F1EE0FEE0F4E
:1058F000E82BEC93EF70F0E0EF56FE4F29593A4F4A
:105900008081F9019081890F84300CF44CC0412FC3
:1059100050E0BA016395637070E0D616170679F00F
:1059200042595A4F902F9F77FA0194831F5F13704B
:105930001093700590916E059F5F90936E05982F60
:10594000990F990B64E070E064D6F90180830F5FD2
:1059500080916D05081708F4B0CF90E03DEFA32EBD
:105960003CEFB32E9924939480917105209170059A
:10597000281709F44CC0E82FF0E0EE58FA4FD08019
:105980000D2D0F778F5F83708093710580916F0568
:105990008F5F80936F05D7FC17C009A3BAA20E943E
:1059A0005B1C13E016C08D3F54F6412F50E0BA0146
:1059B0006395637070E0D616170609F4C0CF42599C
:1059C0005A4F902F9068B0CF09A3AAA20E945B1CE7
:1059D00012E0BC018BA39CA31DA39EA249A15AA1C6
:1059E000812F91E0E6D80FA3D7FE0FC0A8A60E9492
:1059F0005B1CBC0189A79AA71BA71CA64FA158A591
:105A0000812F90E0D6D891E0AFCFB8A6F0CF911516
:105A100039F00E94F0110E941E1D0E94001C04C05B
:105A20000E941E1DC110F9CF86E0EBECF5E0D70116
:105A300001900D928A95E1F79090CC05B090CD053C
:105A40000091CE05A090CF051091D0051092CD0504
:105A50001092CE051092CF051092D005802F8B2981
:105A600009F441C0C0907905D0907A050E945B1C72
:105A70008C199D099C019091C905911509F4C8C222
:105A80002531310580F19F3F19F09F5F9093C90543
:105A9000B11459F00E94231191E01B140CF09FEFF8
:105AA000899F802D11248093CD05011559F00E9406
:105AB000231191E010160CF09FEF899F802D112487
:105AC0008093CE058091CD05811569F0D090CE05EB
:105AD000D11449F00E9415118093CD058D2D0E949F
